{
  "address": "0xC5033f18aA20Cd11F1faAea27B8ddfb129881E6c",
  "abi": [
    {
      "anonymous": false,
      "inputs": [
        {
          "indexed": true,
          "internalType": "address",
          "name": "user",
          "type": "address"
        },
        {
          "indexed": false,
          "internalType": "enum FHEMentalHealthChecker.MentalHealthMetric",
          "name": "metric",
          "type": "uint8"
        },
        {
          "indexed": false,
          "internalType": "uint256",
          "name": "timestamp",
          "type": "uint256"
        }
      ],
      "name": "MetricUpdated",
      "type": "event"
    },
    {
      "anonymous": false,
      "inputs": [
        {
          "indexed": true,
          "internalType": "address",
          "name": "user",
          "type": "address"
        },
        {
          "indexed": false,
          "internalType": "uint256",
          "name": "timestamp",
          "type": "uint256"
        }
      ],
      "name": "ProfileCreated",
      "type": "event"
    },
    {
      "anonymous": false,
      "inputs": [
        {
          "indexed": true,
          "internalType": "address",
          "name": "user",
          "type": "address"
        },
        {
          "indexed": false,
          "internalType": "uint256",
          "name": "timestamp",
          "type": "uint256"
        }
      ],
      "name": "ProfileUpdated",
      "type": "event"
    },
    {
      "inputs": [],
      "name": "allowUserDecryption",
      "outputs": [],
      "stateMutability": "nonpayable",
      "type": "function"
    },
    {
      "inputs": [
        {
          "internalType": "address",
          "name": "",
          "type": "address"
        }
      ],
      "name": "assessmentCount",
      "outputs": [
        {
          "internalType": "uint256",
          "name": "",
          "type": "uint256"
        }
      ],
      "stateMutability": "view",
      "type": "function"
    },
    {
      "inputs": [
        {
          "internalType": "externalEuint32",
          "name": "_anxietyLevel",
          "type": "bytes32"
        },
        {
          "internalType": "bytes",
          "name": "_anxietyProof",
          "type": "bytes"
        },
        {
          "internalType": "externalEuint32",
          "name": "_depressionScore",
          "type": "bytes32"
        },
        {
          "internalType": "bytes",
          "name": "_depressionProof",
          "type": "bytes"
        },
        {
          "internalType": "externalEuint32",
          "name": "_stressIndex",
          "type": "bytes32"
        },
        {
          "internalType": "bytes",
          "name": "_stressProof",
          "type": "bytes"
        },
        {
          "internalType": "externalEuint32",
          "name": "_sleepQuality",
          "type": "bytes32"
        },
        {
          "internalType": "bytes",
          "name": "_sleepProof",
          "type": "bytes"
        },
        {
          "internalType": "externalEuint32",
          "name": "_resilienceScore",
          "type": "bytes32"
        },
        {
          "internalType": "bytes",
          "name": "_resilienceProof",
          "type": "bytes"
        }
      ],
      "name": "createProfile",
      "outputs": [],
      "stateMutability": "nonpayable",
      "type": "function"
    },
    {
      "inputs": [],
      "name": "getAnxietyLevel",
      "outputs": [
        {
          "internalType": "euint32",
          "name": "",
          "type": "bytes32"
        }
      ],
      "stateMutability": "view",
      "type": "function"
    },
    {
      "inputs": [],
      "name": "getAssessmentCount",
      "outputs": [
        {
          "internalType": "uint256",
          "name": "",
          "type": "uint256"
        }
      ],
      "stateMutability": "view",
      "type": "function"
    },
    {
      "inputs": [],
      "name": "getDepressionScore",
      "outputs": [
        {
          "internalType": "euint32",
          "name": "",
          "type": "bytes32"
        }
      ],
      "stateMutability": "view",
      "type": "function"
    },
    {
      "inputs": [],
      "name": "getFullProfile",
      "outputs": [
        {
          "internalType": "euint32",
          "name": "",
          "type": "bytes32"
        },
        {
          "internalType": "euint32",
          "name": "",
          "type": "bytes32"
        },
        {
          "internalType": "euint32",
          "name": "",
          "type": "bytes32"
        },
        {
          "internalType": "euint32",
          "name": "",
          "type": "bytes32"
        },
        {
          "internalType": "euint32",
          "name": "",
          "type": "bytes32"
        }
      ],
      "stateMutability": "view",
      "type": "function"
    },
    {
      "inputs": [],
      "name": "getOverallStatus",
      "outputs": [
        {
          "internalType": "euint8",
          "name": "",
          "type": "bytes32"
        }
      ],
      "stateMutability": "nonpayable",
      "type": "function"
    },
    {
      "inputs": [],
      "name": "getResilienceScore",
      "outputs": [
        {
          "internalType": "euint32",
          "name": "",
          "type": "bytes32"
        }
      ],
      "stateMutability": "view",
      "type": "function"
    },
    {
      "inputs": [],
      "name": "getSleepQuality",
      "outputs": [
        {
          "internalType": "euint32",
          "name": "",
          "type": "bytes32"
        }
      ],
      "stateMutability": "view",
      "type": "function"
    },
    {
      "inputs": [],
      "name": "getStressIndex",
      "outputs": [
        {
          "internalType": "euint32",
          "name": "",
          "type": "bytes32"
        }
      ],
      "stateMutability": "view",
      "type": "function"
    },
    {
      "inputs": [],
      "name": "hasProfile",
      "outputs": [
        {
          "internalType": "bool",
          "name": "",
          "type": "bool"
        }
      ],
      "stateMutability": "view",
      "type": "function"
    },
    {
      "inputs": [],
      "name": "protocolId",
      "outputs": [
        {
          "internalType": "uint256",
          "name": "",
          "type": "uint256"
        }
      ],
      "stateMutability": "pure",
      "type": "function"
    },
    {
      "inputs": [
        {
          "internalType": "enum FHEMentalHealthChecker.MentalHealthMetric",
          "name": "metric",
          "type": "uint8"
        },
        {
          "internalType": "externalEuint32",
          "name": "value",
          "type": "bytes32"
        },
        {
          "internalType": "bytes",
          "name": "inputProof",
          "type": "bytes"
        }
      ],
      "name": "updateMetric",
      "outputs": [],
      "stateMutability": "nonpayable",
      "type": "function"
    },
    {
      "inputs": [
        {
          "internalType": "externalEuint32",
          "name": "_anxietyLevel",
          "type": "bytes32"
        },
        {
          "internalType": "bytes",
          "name": "_anxietyProof",
          "type": "bytes"
        },
        {
          "internalType": "externalEuint32",
          "name": "_depressionScore",
          "type": "bytes32"
        },
        {
          "internalType": "bytes",
          "name": "_depressionProof",
          "type": "bytes"
        },
        {
          "internalType": "externalEuint32",
          "name": "_stressIndex",
          "type": "bytes32"
        },
        {
          "internalType": "bytes",
          "name": "_stressProof",
          "type": "bytes"
        },
        {
          "internalType": "externalEuint32",
          "name": "_sleepQuality",
          "type": "bytes32"
        },
        {
          "internalType": "bytes",
          "name": "_sleepProof",
          "type": "bytes"
        },
        {
          "internalType": "externalEuint32",
          "name": "_resilienceScore",
          "type": "bytes32"
        },
        {
          "internalType": "bytes",
          "name": "_resilienceProof",
          "type": "bytes"
        }
      ],
      "name": "updateProfile",
      "outputs": [],
      "stateMutability": "nonpayable",
      "type": "function"
    }
  ],
  "transactionHash": "0x13b4679c58b79c84cf35e9a15a221dc7fbcebf72d91d522061eb5c6ee4f942b7",
  "args": [],
  "numDeployments": 2,
  "solcInputHash": "62496e04466355072881c07fb6097746",
  "bytecode": "0x608060405234610194575f6060610014610198565b8281528260208201528260408201520152731364cbbf2cdf5032c47d8226a6f6fbd2afcdacac6060610044610198565b73687820221192c5b662b25367f70076a37bc79b6c815273848b0066793bcc60346da1f49049357399b8d595602082015273a02cda4ca3a71d7c46997716f4283aa851c288126040820152015273687820221192c5b662b25367f70076a37bc79b6c60018060a01b03195f51602061174f5f395f51905f525416175f51602061174f5f395f51905f525573848b0066793bcc60346da1f49049357399b8d59560018060a01b03195f51602061170f5f395f51905f525416175f51602061170f5f395f51905f525573a02cda4ca3a71d7c46997716f4283aa851c2881260018060a01b03195f51602061172f5f395f51905f525416175f51602061172f5f395f51905f5255731364cbbf2cdf5032c47d8226a6f6fbd2afcdacac60018060a01b03195f5160206116ef5f395f51905f525416175f5160206116ef5f395f51905f525560405161152390816101cc8239f35b5f80fd5b60405190608082016001600160401b038111838210176101b757604052565b634e487b7160e01b5f52604160045260245ffdfe6080806040526004361015610012575f80fd5b5f3560e01c90816316ae516114610e55575080632d6fcf521461085957806334a41a6f146108165780634135c6a7146106955780634387d6561461061b5780634b27bd8a146104135780635a1ddb1f146103d057806385d4b0f11461038d5780638adccfcb1461032157806398dda732146102fa578063a3843c2b146102ba578063adb480251461015f578063c8d3b8851461011c578063da1f12ab146101005763fb36b95c146100c1575f80fd5b346100fc5760203660031901126100fc576004356001600160a01b0381168091036100fc575f526001602052602060405f2054604051908152f35b5f80fd5b346100fc575f3660031901126100fc5760206040516127118152f35b346100fc575f3660031901126100fc57335f525f60205261014660ff600660405f20015416610f80565b335f525f6020526020600260405f200154604051908152f35b346100fc5760603660031901126100fc5760043560058110156100fc576044359067ffffffffffffffff82116100fc576101da6101a36101d2933690600401610e7f565b9390335f525f6020526101bf60ff600660405f20015416610f80565b335f525f60205260405f20943691610fee565b60243561116a565b5f928261024d5790818161020193555b6005429101556101fa3082611479565b3390611479565b604051916102395781524260208201527fdacf8be9335bc52b303481145b5e028f4ecc698cdac5a580241db26f3d56838060403392a2005b634e487b7160e01b5f52602160045260245ffd5b5f9350600183036102695790818160016102019401555b6101ea565b5f9350600283036102845790818160026102019401556101ea565b5f93506003830361029f5790818160036102019401556101ea565b9250610201905f9360048403610264578160048201556101ea565b346100fc575f3660031901126100fc57335f525f6020526102e460ff600660405f20015416610f80565b335f525f602052602060405f2054604051908152f35b346100fc575f3660031901126100fc57335f526001602052602060405f2054604051908152f35b346100fc575f3660031901126100fc57335f525f60205261034b60ff600660405f20015416610f80565b335f525f60205260a060405f20805490600181015490600281015460046003830154920154926040519485526020850152604084015260608301526080820152f35b346100fc575f3660031901126100fc57335f525f6020526103b760ff600660405f20015416610f80565b335f525f6020526020600360405f200154604051908152f35b346100fc575f3660031901126100fc57335f525f6020526103fa60ff600660405f20015416610f80565b335f525f6020526020600160405f200154604051908152f35b346100fc5761042136610ead565b9a93969497959d9199929b9c90989c335f525f60205260ff600660405f200154166105d657369061045192610fee565b61045a9161116a565b9a369061046692610fee565b61046f9161116a565b99369061047b92610fee565b6104849161116a565b95369061049092610fee565b6104999161116a565b9236906104a592610fee565b6104ae9161116a565b926040519260e084019380851067ffffffffffffffff8611176105c257610594966101fa6101fa946101fa936101fa9860405281815260066020820191858352604081018881528c606083018c81526080840191825260a084019242845260c085019660018852335f525f60205260405f2095518655516001860155516002850155516003840155516004830155516005820155019051151560ff80198354169116179055335f526001602052600160405f205561056c3082611479565b6105763084611479565b6105803086611479565b61058a3088611479565b6101fa308a611479565b6040514281527fcb939889322fed25104a5d8945bde5162563412a1fd718946cdcacb03088ea0860203392a2005b634e487b7160e01b5f52604160045260245ffd5b60405162461bcd60e51b815260206004820152601660248201527f50726f66696c6520616c726561647920657869737473000000000000000000006044820152606490fd5b346100fc575f3660031901126100fc57335f525f60205261064560ff600660405f20015416610f80565b335f525f60205261069360405f2061065e338254611479565b61066c336001830154611479565b61067a336002830154611479565b610688336003830154611479565b600433910154611479565b005b346100fc576106a336610ead565b9a93969497959d90989199929b9c335f525f60205260405f206006015460ff166106cc90610f80565b335f525f60205260405f209d36906106e392610fee565b6106ec9161116a565b8c5536906106f992610fee565b6107029161116a565b9960018a019a8b55369061071592610fee565b61071e9161116a565b9560028801968755369061073192610fee565b61073a9161116a565b9260038601938455369061074d92610fee565b6107569161116a565b9260048101938455426005820155335f52600160205260405f20928354935f198514610802576107d4966107cc6107cc946107cc9360016107cc990190556107a081543090611479565b6107ab308454611479565b6107b6308654611479565b6107c1308854611479565b6107cc308a54611479565b339054611479565b6040514281527f03754aecf8745159503d95ad9d4b5e5ec503371279ddc036d4ac93cd953f9de260203392a2005b634e487b7160e01b5f52601160045260245ffd5b346100fc575f3660031901126100fc57335f525f60205261084060ff600660405f20015416610f80565b335f525f6020526020600460405f200154604051908152f35b346100fc575f3660031901126100fc57335f525f60205261088360ff600660405f20015416610f80565b335f908152602081905260409081902080545f5160206114f75f395f51905f52549251639cd07acb60e01b81526007600482015291926001600160a01b0316826044815f602094600460248401525af1918215610c70575f92610e1f575b506108f48261090a9261090f9450611034565b6108fc611290565b6109046112de565b91611426565b611066565b60018201545f5160206114f75f395f51905f5254604051639cd07acb60e01b81526009600482015292939291906001600160a01b0316826044815f602094600460248401525af1918215610c70575f92610de9575b506108f48261090a926109779450611034565b60028201545f5160206114f75f395f51905f5254604051639cd07acb60e01b8152600d600482015291906001600160a01b0316826044815f602094600460248401525af1918215610c70575f92610db3575b506108f48261090a926109dc9450611034565b60038301545f5160206114f75f395f51905f5254604051639cd07acb60e01b815260056004820152929392906001600160a01b0316816044815f602094600460248401525af1908115610c70575f91610d7f575b5061090a6108f482600494610a459450611034565b9301545f5160206114f75f395f51905f5254604051639cd07acb60e01b815260506004820152906001600160a01b0316816044815f602094600460248401525af1908115610c70575f91610d4d575b50808215610d3d575b15610d2b575b60209060646001600160a01b035f5160206114f75f395f51905f525416935f6040519586948593631391547f60e01b8552600485015260248401528160448401525af1908115610c70575f91610cf1575b50610b2594610b19610b1f9493610b1361090a610b1f956108fc611290565b926110e5565b946110e5565b906110e5565b610b2d61132d565b908080159283610ce1575b8015610ccf575b60209060646001600160a01b035f5160206114f75f395f51905f525416945f604051968794859363f77f3f1d60e01b8552600485015260248401528160448401525af1918215610c70575f92610c99575b50610bb890610b9d61132d565b93610ba661137b565b9190610c8b575b8115610c7b576113ca565b5f5160206114f75f395f51905f5254604051639cd07acb60e01b8152600160048201529391906001600160a01b0316846044815f602094600260248401525af1938415610c70575f94610c36575b6020610c1a8585610904868a61090461137b565b610c243082611479565b610c2e3382611479565b604051908152f35b935091906020843d602011610c68575b81610c5360209383610fcc565b810103126100fc579251929091610904610c06565b3d9150610c46565b6040513d5f823e3d90fd5b9050610c8561132d565b906113ca565b50610c9461132d565b610bad565b9091506020813d602011610cc7575b81610cb560209383610fcc565b810103126100fc575190610bb8610b90565b3d9150610ca8565b506020610cda61132d565b9050610b3f565b9150610ceb61132d565b91610b38565b929190506020833d602011610d23575b81610d0e60209383610fcc565b810103126100fc579151909190610b25610af4565b3d9150610d01565b506020610d36611290565b9050610aa3565b9150610d47611290565b91610a9d565b90506020813d602011610d77575b81610d6860209383610fcc565b810103126100fc575186610a94565b3d9150610d5b565b90506020813d602011610dab575b81610d9a60209383610fcc565b810103126100fc575161090a610a30565b3d9150610d8d565b91506020823d602011610de1575b81610dce60209383610fcc565b810103126100fc579051906108f46109c9565b3d9150610dc1565b91506020823d602011610e17575b81610e0460209383610fcc565b810103126100fc579051906108f4610964565b3d9150610df7565b91506020823d602011610e4d575b81610e3a60209383610fcc565b810103126100fc579051906108f46108e1565b3d9150610e2d565b346100fc575f3660031901126100fc57602090335f525f825260ff600660405f2001541615158152f35b9181601f840112156100fc5782359167ffffffffffffffff83116100fc57602083818601950101116100fc57565b906101406003198301126100fc576004359160243567ffffffffffffffff81116100fc5781610ede91600401610e7f565b929092916044359160643567ffffffffffffffff81116100fc5782610f0591600401610e7f565b929092916084359160a43567ffffffffffffffff81116100fc5781610f2c91600401610e7f565b9290929160c4359160e43567ffffffffffffffff81116100fc5782610f5391600401610e7f565b929092916101043591610124359067ffffffffffffffff82116100fc57610f7c91600401610e7f565b9091565b15610f8757565b60405162461bcd60e51b815260206004820152601660248201527f50726f66696c6520646f6573206e6f74206578697374000000000000000000006044820152606490fd5b90601f8019910116810190811067ffffffffffffffff8211176105c257604052565b92919267ffffffffffffffff82116105c25760405191611018601f8201601f191660200184610fcc565b8294818452818301116100fc578281602093845f960137010152565b9061104b918015611058575b811561104e576113ca565b90565b9050610c85611290565b50611061611290565b611040565b60205f9160446001600160a01b035f5160206114f75f395f51905f5254169160405194859384926307227b9160e21b84526004840152600260248401525af1908115610c70575f916110b6575090565b90506020813d6020116110dd575b816110d160209383610fcc565b810103126100fc575190565b3d91506110c4565b90811561115a575b8015611148575b60209060646001600160a01b035f5160206114f75f395f51905f525416935f604051958694859363022f65e760e31b8552600485015260248401528160448401525af1908115610c70575f916110b6575090565b50602061115361132d565b90506110f4565b905061116461132d565b906110ed565b60209182916001600160a01b035f5160206114f75f395f51905f525416905f60a460405180978196829563196d0b9b60e01b84526004840152336024840152608060448401528051918291826084860152018484015e818101830184905260046064830152601f01601f191681010301925af1908115610c70575f9161125e575b506001600160a01b037f9e7b61f58c47dc699ac88507c4f5bb9f121c03808c5676a8078fe583e46497005416803b156100fc57604051630f8e573b60e21b815260048101839052336024820152905f908290604490829084905af18015610c7057611254575090565b5f61104b91610fcc565b90506020813d602011611288575b8161127960209383610fcc565b810103126100fc57515f6111eb565b3d915061126c565b5f5160206114f75f395f51905f5254604051639cd07acb60e01b81525f6004820152906001600160a01b0316816044815f602094600460248401525af1908115610c70575f916110b6575090565b5f5160206114f75f395f51905f5254604051639cd07acb60e01b815260016004820152906001600160a01b0316816044815f602094600460248401525af1908115610c70575f916110b6575090565b5f5160206114f75f395f51905f5254604051639cd07acb60e01b81525f6004820152906001600160a01b0316816044815f602094600260248401525af1908115610c70575f916110b6575090565b5f5160206114f75f395f51905f5254604051639cd07acb60e01b815260026004820152906001600160a01b0316816044815f602094600260248401525af1908115610c70575f916110b6575090565b5f5160206114f75f395f51905f5254604051631d44e90160e21b8152600481019290925260248201929092525f604482018190529091602091839160649183916001600160a01b03165af1908115610c70575f916110b6575090565b9060646020925f6001600160a01b035f5160206114f75f395f51905f5254166040519687958694637702dcff60e01b86526004860152602485015260448401525af1908115610c70575f916110b6575090565b6001600160a01b037f9e7b61f58c47dc699ac88507c4f5bb9f121c03808c5676a8078fe583e4649700541691823b156100fc57604051635ca4b5b160e11b815260048101929092526001600160a01b03166024820152905f908290604490829084905af18015610c70576114ea5750565b5f6114f491610fcc565b56fe9e7b61f58c47dc699ac88507c4f5bb9f121c03808c5676a8078fe583e4649701a164736f6c634300081b000a9e7b61f58c47dc699ac88507c4f5bb9f121c03808c5676a8078fe583e46497039e7b61f58c47dc699ac88507c4f5bb9f121c03808c5676a8078fe583e46497019e7b61f58c47dc699ac88507c4f5bb9f121c03808c5676a8078fe583e46497029e7b61f58c47dc699ac88507c4f5bb9f121c03808c5676a8078fe583e4649700",
  "devdoc": {
    "details": "All mental health data remains encrypted on-chain, only users can decrypt their own data",
    "kind": "dev",
    "methods": {
      "allowUserDecryption()": {
        "details": "Must be called before each decryption attempt"
      },
      "createProfile(bytes32,bytes,bytes32,bytes,bytes32,bytes,bytes32,bytes,bytes32,bytes)": {
        "params": {
          "_anxietyLevel": "Anxiety level (encrypted input, 0-21)",
          "_anxietyProof": "Proof for anxiety level",
          "_depressionProof": "Proof for depression score",
          "_depressionScore": "Depression score (encrypted input, 0-27)",
          "_resilienceProof": "Proof for resilience score",
          "_resilienceScore": "Resilience score (encrypted input, 0-100)",
          "_sleepProof": "Proof for sleep quality",
          "_sleepQuality": "Sleep quality (encrypted input, 0-21)",
          "_stressIndex": "Stress index (encrypted input, 0-40)",
          "_stressProof": "Proof for stress index"
        }
      },
      "getAnxietyLevel()": {
        "returns": {
          "_0": "Encrypted anxiety level"
        }
      },
      "getAssessmentCount()": {
        "returns": {
          "_0": "User's assessment count"
        }
      },
      "getDepressionScore()": {
        "returns": {
          "_0": "Encrypted depression score"
        }
      },
      "getFullProfile()": {
        "returns": {
          "_0": "Anxiety, depression, stress, sleep, resilience (all encrypted)"
        }
      },
      "getOverallStatus()": {
        "returns": {
          "_0": "Overall status score (encrypted, 0=healthy, 1=needs attention, 2=needs help)"
        }
      },
      "getResilienceScore()": {
        "returns": {
          "_0": "Encrypted resilience score"
        }
      },
      "getSleepQuality()": {
        "returns": {
          "_0": "Encrypted sleep quality score"
        }
      },
      "getStressIndex()": {
        "returns": {
          "_0": "Encrypted stress index"
        }
      },
      "hasProfile()": {
        "returns": {
          "_0": "Whether profile exists"
        }
      },
      "updateMetric(uint8,bytes32,bytes)": {
        "params": {
          "inputProof": "Proof for the encrypted value",
          "metric": "The metric type to update",
          "value": "New metric value (encrypted)"
        }
      }
    },
    "stateVariables": {
      "assessmentCount": {
        "details": "User assessment count (for tracking usage)"
      },
      "userProfiles": {
        "details": "Mapping of user mental health profiles"
      }
    },
    "title": "FHEMentalHealthChecker",
    "version": 1
  },
  "userdoc": {
    "kind": "user",
    "methods": {
      "allowUserDecryption()": {
        "notice": "Re-grant decryption permissions for all profile data"
      },
      "createProfile(bytes32,bytes,bytes32,bytes,bytes32,bytes,bytes32,bytes,bytes32,bytes)": {
        "notice": "Create mental health profile"
      },
      "getAnxietyLevel()": {
        "notice": "Get anxiety level (encrypted)"
      },
      "getAssessmentCount()": {
        "notice": "Get assessment count"
      },
      "getDepressionScore()": {
        "notice": "Get depression score (encrypted)"
      },
      "getFullProfile()": {
        "notice": "Get complete mental health profile (all data encrypted)"
      },
      "getOverallStatus()": {
        "notice": "Calculate overall mental health status (encrypted computation)"
      },
      "getResilienceScore()": {
        "notice": "Get resilience score (encrypted)"
      },
      "getSleepQuality()": {
        "notice": "Get sleep quality (encrypted)"
      },
      "getStressIndex()": {
        "notice": "Get stress index (encrypted)"
      },
      "hasProfile()": {
        "notice": "Check if user has a mental health profile"
      },
      "updateMetric(uint8,bytes32,bytes)": {
        "notice": "Update a single mental health metric"
      },
      "updateProfile(bytes32,bytes,bytes32,bytes,bytes32,bytes,bytes32,bytes,bytes32,bytes)": {
        "notice": "Update complete mental health profile"
      }
    },
    "notice": "Privacy-preserving mental health self-assessment system using Fully Homomorphic Encryption",
    "version": 1
  },
  "storageLayout": {
    "storage": [
      {
        "astId": 40043,
        "contract": "contracts/FHEMentalHealthChecker.sol:FHEMentalHealthChecker",
        "label": "userProfiles",
        "offset": 0,
        "slot": "0",
        "type": "t_mapping(t_address,t_struct(MentalHealthProfile)40037_storage)"
      },
      {
        "astId": 40048,
        "contract": "contracts/FHEMentalHealthChecker.sol:FHEMentalHealthChecker",
        "label": "assessmentCount",
        "offset": 0,
        "slot": "1",
        "type": "t_mapping(t_address,t_uint256)"
      }
    ],
    "types": {
      "t_address": {
        "encoding": "inplace",
        "label": "address",
        "numberOfBytes": "20"
      },
      "t_bool": {
        "encoding": "inplace",
        "label": "bool",
        "numberOfBytes": "1"
      },
      "t_mapping(t_address,t_struct(MentalHealthProfile)40037_storage)": {
        "encoding": "mapping",
        "key": "t_address",
        "label": "mapping(address => struct FHEMentalHealthChecker.MentalHealthProfile)",
        "numberOfBytes": "32",
        "value": "t_struct(MentalHealthProfile)40037_storage"
      },
      "t_mapping(t_address,t_uint256)": {
        "encoding": "mapping",
        "key": "t_address",
        "label": "mapping(address => uint256)",
        "numberOfBytes": "32",
        "value": "t_uint256"
      },
      "t_struct(MentalHealthProfile)40037_storage": {
        "encoding": "inplace",
        "label": "struct FHEMentalHealthChecker.MentalHealthProfile",
        "members": [
          {
            "astId": 40020,
            "contract": "contracts/FHEMentalHealthChecker.sol:FHEMentalHealthChecker",
            "label": "anxietyLevel",
            "offset": 0,
            "slot": "0",
            "type": "t_userDefinedValueType(euint32)41083"
          },
          {
            "astId": 40023,
            "contract": "contracts/FHEMentalHealthChecker.sol:FHEMentalHealthChecker",
            "label": "depressionScore",
            "offset": 0,
            "slot": "1",
            "type": "t_userDefinedValueType(euint32)41083"
          },
          {
            "astId": 40026,
            "contract": "contracts/FHEMentalHealthChecker.sol:FHEMentalHealthChecker",
            "label": "stressIndex",
            "offset": 0,
            "slot": "2",
            "type": "t_userDefinedValueType(euint32)41083"
          },
          {
            "astId": 40029,
            "contract": "contracts/FHEMentalHealthChecker.sol:FHEMentalHealthChecker",
            "label": "sleepQuality",
            "offset": 0,
            "slot": "3",
            "type": "t_userDefinedValueType(euint32)41083"
          },
          {
            "astId": 40032,
            "contract": "contracts/FHEMentalHealthChecker.sol:FHEMentalHealthChecker",
            "label": "resilienceScore",
            "offset": 0,
            "slot": "4",
            "type": "t_userDefinedValueType(euint32)41083"
          },
          {
            "astId": 40034,
            "contract": "contracts/FHEMentalHealthChecker.sol:FHEMentalHealthChecker",
            "label": "lastUpdateTime",
            "offset": 0,
            "slot": "5",
            "type": "t_uint256"
          },
          {
            "astId": 40036,
            "contract": "contracts/FHEMentalHealthChecker.sol:FHEMentalHealthChecker",
            "label": "exists",
            "offset": 0,
            "slot": "6",
            "type": "t_bool"
          }
        ],
        "numberOfBytes": "224"
      },
      "t_uint256": {
        "encoding": "inplace",
        "label": "uint256",
        "numberOfBytes": "32"
      },
      "t_userDefinedValueType(euint32)41083": {
        "encoding": "inplace",
        "label": "euint32",
        "numberOfBytes": "32"
      }
    }
  }
}