{
  "_format": "hh-sol-artifact-1",
  "contractName": "FHEHealthChecker",
  "sourceName": "contracts/FHEHealthChecker.sol",
  "abi": [
    {
      "inputs": [],
      "stateMutability": "nonpayable",
      "type": "constructor"
    },
    {
      "anonymous": false,
      "inputs": [
        {
          "indexed": true,
          "internalType": "address",
          "name": "user",
          "type": "address"
        },
        {
          "indexed": false,
          "internalType": "bytes32",
          "name": "requestId",
          "type": "bytes32"
        },
        {
          "indexed": false,
          "internalType": "uint8",
          "name": "metric",
          "type": "uint8"
        }
      ],
      "name": "HealthCheckRequested",
      "type": "event"
    },
    {
      "anonymous": false,
      "inputs": [
        {
          "indexed": true,
          "internalType": "address",
          "name": "user",
          "type": "address"
        },
        {
          "indexed": false,
          "internalType": "uint256",
          "name": "requestId",
          "type": "uint256"
        },
        {
          "indexed": false,
          "internalType": "uint8",
          "name": "metric",
          "type": "uint8"
        },
        {
          "indexed": false,
          "internalType": "uint8",
          "name": "status",
          "type": "uint8"
        }
      ],
      "name": "HealthCheckResult",
      "type": "event"
    },
    {
      "anonymous": false,
      "inputs": [
        {
          "indexed": true,
          "internalType": "address",
          "name": "user",
          "type": "address"
        },
        {
          "indexed": false,
          "internalType": "uint8",
          "name": "metric",
          "type": "uint8"
        }
      ],
      "name": "HealthStatusUpdated",
      "type": "event"
    },
    {
      "inputs": [
        {
          "internalType": "externalEuint32",
          "name": "bloodGlucose",
          "type": "bytes32"
        },
        {
          "internalType": "bytes",
          "name": "inputProof",
          "type": "bytes"
        }
      ],
      "name": "checkBloodGlucose",
      "outputs": [],
      "stateMutability": "nonpayable",
      "type": "function"
    },
    {
      "inputs": [
        {
          "internalType": "externalEuint32",
          "name": "bloodOxygen",
          "type": "bytes32"
        },
        {
          "internalType": "bytes",
          "name": "inputProof",
          "type": "bytes"
        }
      ],
      "name": "checkBloodOxygen",
      "outputs": [],
      "stateMutability": "nonpayable",
      "type": "function"
    },
    {
      "inputs": [
        {
          "internalType": "externalEuint32",
          "name": "bloodPressure",
          "type": "bytes32"
        },
        {
          "internalType": "bytes",
          "name": "inputProof",
          "type": "bytes"
        }
      ],
      "name": "checkBloodPressure",
      "outputs": [],
      "stateMutability": "nonpayable",
      "type": "function"
    },
    {
      "inputs": [
        {
          "internalType": "externalEuint32",
          "name": "bodyTemperature",
          "type": "bytes32"
        },
        {
          "internalType": "bytes",
          "name": "inputProof",
          "type": "bytes"
        }
      ],
      "name": "checkBodyTemperature",
      "outputs": [],
      "stateMutability": "nonpayable",
      "type": "function"
    },
    {
      "inputs": [
        {
          "internalType": "externalEuint32",
          "name": "heartRate",
          "type": "bytes32"
        },
        {
          "internalType": "bytes",
          "name": "inputProof",
          "type": "bytes"
        }
      ],
      "name": "checkHeartRate",
      "outputs": [],
      "stateMutability": "nonpayable",
      "type": "function"
    },
    {
      "inputs": [],
      "name": "getBloodPressureRanges",
      "outputs": [
        {
          "internalType": "uint32",
          "name": "min",
          "type": "uint32"
        },
        {
          "internalType": "uint32",
          "name": "max",
          "type": "uint32"
        }
      ],
      "stateMutability": "pure",
      "type": "function"
    },
    {
      "inputs": [],
      "name": "getHealthMetricRanges",
      "outputs": [
        {
          "internalType": "uint8[]",
          "name": "metricTypes",
          "type": "uint8[]"
        },
        {
          "internalType": "uint32[]",
          "name": "mins",
          "type": "uint32[]"
        },
        {
          "internalType": "uint32[]",
          "name": "maxs",
          "type": "uint32[]"
        },
        {
          "internalType": "string[]",
          "name": "units",
          "type": "string[]"
        },
        {
          "internalType": "string[]",
          "name": "descriptions",
          "type": "string[]"
        }
      ],
      "stateMutability": "pure",
      "type": "function"
    },
    {
      "inputs": [
        {
          "internalType": "uint8",
          "name": "metric",
          "type": "uint8"
        }
      ],
      "name": "getHealthStatus",
      "outputs": [
        {
          "internalType": "euint8",
          "name": "",
          "type": "bytes32"
        }
      ],
      "stateMutability": "view",
      "type": "function"
    },
    {
      "inputs": [],
      "name": "protocolId",
      "outputs": [
        {
          "internalType": "uint256",
          "name": "",
          "type": "uint256"
        }
      ],
      "stateMutability": "pure",
      "type": "function"
    }
  ],
  "bytecode": "0x608060405234610194575f6060610014610198565b8281528260208201528260408201520152731364cbbf2cdf5032c47d8226a6f6fbd2afcdacac6060610044610198565b73687820221192c5b662b25367f70076a37bc79b6c815273848b0066793bcc60346da1f49049357399b8d595602082015273a02cda4ca3a71d7c46997716f4283aa851c288126040820152015273687820221192c5b662b25367f70076a37bc79b6c60018060a01b03195f5160206119d65f395f51905f525416175f5160206119d65f395f51905f525573848b0066793bcc60346da1f49049357399b8d59560018060a01b03195f5160206119965f395f51905f525416175f5160206119965f395f51905f525573a02cda4ca3a71d7c46997716f4283aa851c2881260018060a01b03195f5160206119b65f395f51905f525416175f5160206119b65f395f51905f5255731364cbbf2cdf5032c47d8226a6f6fbd2afcdacac60018060a01b03195f5160206119765f395f51905f525416175f5160206119765f395f51905f52556040516117aa90816101cc8239f35b5f80fd5b60405190608082016001600160401b038111838210176101b757604052565b634e487b7160e01b5f52604160045260245ffdfe60806040526004361015610011575f80fd5b5f3560e01c80632209db88146110ce57806335419f0a14610e2d5780633758881914610c155780633e55e9f0146107c3578063ac1610e4146105ab578063d8e0c26014610306578063da1f12ab146102ea578063fd45ec9b146102c95763fdae52931461007c575f80fd5b34610249576100a061009a6100903661110d565b929192369161124c565b9061132d565b5f51602061177e5f395f51905f5254604051639cd07acb60e01b815260466004820152906001600160a01b0316816044815f602094600460248401525af18015610255575f90610295575b6100f691508261143e565b90610111610102611577565b9161010b611663565b906114f2565b90602061011c6115c6565b6064610126611615565b945f6001600160a01b035f51602061177e5f395f51905f5254166040519788958694637702dcff60e01b86526004860152602485015260448401525af1918215610255575f92610260575b506064602092935f6001600160a01b035f51602061177e5f395f51905f5254166040519687958694637702dcff60e01b86526004860152602485015260448401525af18015610255575f9061021d575b6101ee90335f525f60205260405f2060025f526020528060405f20556101e73082611700565b3390611700565b604051600281527fa744870867f6f2f353f07ae5973b5f9e3d47874ce46ac03184675b2d2994420e60203392a2005b506020813d60201161024d575b8161023760209383611216565b81010312610249576101ee90516101c1565b5f80fd5b3d915061022a565b6040513d5f823e3d90fd5b91506020823d60201161028d575b8161027b60209383611216565b81010312610249579051906064610171565b3d915061026e565b506020813d6020116102c1575b816102af60209383611216565b81010312610249576100f690516100eb565b3d91506102a2565b34610249575f3660031901126102495760408051605a8152608c6020820152f35b34610249575f3660031901126102495760206040516127118152f35b346102495761031a61009a6100903661110d565b5f51602061177e5f395f51905f5254604051639cd07acb60e01b81526101686004820152906001600160a01b0316816044815f602094600460248401525af18015610255575f90610577575b61037191508261143e565b9061037a611577565b5f51602061177e5f395f51905f5254604051639cd07acb60e01b815261017760048201529192906001600160a01b0316826044815f602094600460248401525af1908115610255575f91610541575b6103d392506114f2565b9060206103de6115c6565b60646103e8611615565b945f6001600160a01b035f51602061177e5f395f51905f5254166040519788958694637702dcff60e01b86526004860152602485015260448401525af1918215610255575f9261050c575b506064602092935f6001600160a01b035f51602061177e5f395f51905f5254166040519687958694637702dcff60e01b86526004860152602485015260448401525af18015610255575f906104d8575b6104a990335f525f60205260405f2060035f526020528060405f20556101e73082611700565b604051600381527fa744870867f6f2f353f07ae5973b5f9e3d47874ce46ac03184675b2d2994420e60203392a2005b506020813d602011610504575b816104f260209383611216565b81010312610249576104a99051610483565b3d91506104e5565b91506020823d602011610539575b8161052760209383611216565b81010312610249579051906064610433565b3d915061051a565b90506020823d60201161056f575b8161055c60209383611216565b81010312610249576103d39151906103c9565b3d915061054f565b506020813d6020116105a3575b8161059160209383611216565b81010312610249576103719051610366565b3d9150610584565b34610249576105bf61009a6100903661110d565b5f51602061177e5f395f51905f5254604051639cd07acb60e01b8152603c6004820152906001600160a01b0316816044815f602094600460248401525af18015610255575f9061078f575b61061591508261143e565b90610621610102611577565b90602061062c6115c6565b6064610636611615565b945f6001600160a01b035f51602061177e5f395f51905f5254166040519788958694637702dcff60e01b86526004860152602485015260448401525af1918215610255575f9261075a575b506064602092935f6001600160a01b035f51602061177e5f395f51905f5254166040519687958694637702dcff60e01b86526004860152602485015260448401525af18015610255575f90610726575b6106f790335f525f60205260405f2060015f526020528060405f20556101e73082611700565b604051600181527fa744870867f6f2f353f07ae5973b5f9e3d47874ce46ac03184675b2d2994420e60203392a2005b506020813d602011610752575b8161074060209383611216565b81010312610249576106f790516106d1565b3d9150610733565b91506020823d602011610787575b8161077560209383611216565b81010312610249579051906064610681565b3d9150610768565b506020813d6020116107bb575b816107a960209383611216565b8101031261024957610615905161060a565b3d915061079c565b34610249575f3660031901126102495760405160c06107e28183611216565b60058252602082019160a0368437604051906107fe8383611216565b6005825260a0366020840137604051906108188483611216565b6005825260a036602084013761082c611292565b91610835611292565b935f610840846112cc565b52605a61084c826112cc565b52608c610858836112cc565b5260409283516108688582611216565b60048152636d6d486760e01b6020820152610882866112cc565b5261088c856112cc565b5083516108998582611216565b601781527f537973746f6c696320426c6f6f6420507265737375726500000000000000000060208201526108cc876112cc565b526108d6866112cc565b5060016108e2826112ed565b52603c6108ee836112ed565b5260646108fa846112ed565b5283516109078582611216565b600381526262706d60e81b6020820152610920866112ed565b5261092a856112ed565b5083516109378582611216565b600a81527f4865617274205261746500000000000000000000000000000000000000000000602082015261096a876112ed565b52610974866112ed565b506002610980826112fd565b52604661098c836112fd565b526064610998846112fd565b5283516109a58582611216565b600581527f6d672f644c00000000000000000000000000000000000000000000000000000060208201526109d8866112fd565b526109e2856112fd565b5083516109ef8582611216565b601581527f46617374696e6720426c6f6f6420476c75636f736500000000000000000000006020820152610a22876112fd565b52610a2c866112fd565b506003610a388261130d565b52610168610a458361130d565b52610177610a528461130d565b528351610a5f8582611216565b600d81527f43656c73697573202878313029000000000000000000000000000000000000006020820152610a928661130d565b52610a9c8561130d565b508351610aaa606082611216565b602381527f426f64792054656d706572617475726520286d756c7469706c6965642062792060208201526231302960e81b85820152610ae88761130d565b52610af28661130d565b506004610afe8261131d565b52605f610b0a8361131d565b526064610b168461131d565b528351610b238582611216565b60018152602560f81b6020820152610b3a8661131d565b52610b448561131d565b508351610b518582611216565b601781527f426c6f6f64204f787967656e2053617475726174696f6e0000000000000000006020820152610b848761131d565b52610b8e8661131d565b5083519660a088019160a0895251809252870197905f5b818110610bfc57505050610bea92610bf8959492610bcf89610bdc948a809c0360208c0152611161565b9188830390890152611161565b9085820360608701526111be565b9083820360808501526111be565b0390f35b825160ff168a526020998a019990920191600101610ba5565b3461024957610c2961009a6100903661110d565b5f51602061177e5f395f51905f5254604051639cd07acb60e01b8152605f6004820152906001600160a01b0316816044815f602094600460248401525af18015610255575f90610df9575b610c7f91508261143e565b90610c8b610102611577565b906020610c966115c6565b6064610ca0611615565b945f6001600160a01b035f51602061177e5f395f51905f5254166040519788958694637702dcff60e01b86526004860152602485015260448401525af1918215610255575f92610dc4575b506064602092935f6001600160a01b035f51602061177e5f395f51905f5254166040519687958694637702dcff60e01b86526004860152602485015260448401525af18015610255575f90610d90575b610d6190335f525f60205260405f2060045f526020528060405f20556101e73082611700565b604051600481527fa744870867f6f2f353f07ae5973b5f9e3d47874ce46ac03184675b2d2994420e60203392a2005b506020813d602011610dbc575b81610daa60209383611216565b8101031261024957610d619051610d3b565b3d9150610d9d565b91506020823d602011610df1575b81610ddf60209383611216565b81010312610249579051906064610ceb565b3d9150610dd2565b506020813d602011610e25575b81610e1360209383611216565b8101031261024957610c7f9051610c74565b3d9150610e06565b3461024957610e4161009a6100903661110d565b5f51602061177e5f395f51905f5254604051639cd07acb60e01b8152605a6004820152906001600160a01b0316816044815f602094600460248401525af18015610255575f9061109a575b610e9791508261143e565b90610ea0611577565b5f51602061177e5f395f51905f5254604051639cd07acb60e01b8152608c60048201529192906001600160a01b0316826044815f602094600460248401525af1908115610255575f91611064575b610ef892506114f2565b906020610f036115c6565b6064610f0d611615565b945f6001600160a01b035f51602061177e5f395f51905f5254166040519788958694637702dcff60e01b86526004860152602485015260448401525af1918215610255575f9261102f575b506064602092935f6001600160a01b035f51602061177e5f395f51905f5254166040519687958694637702dcff60e01b86526004860152602485015260448401525af18015610255575f90610ffb575b610fcd90335f525f60205260405f205f80526020528060405f20556101e73082611700565b6040515f81527fa744870867f6f2f353f07ae5973b5f9e3d47874ce46ac03184675b2d2994420e60203392a2005b506020813d602011611027575b8161101560209383611216565b8101031261024957610fcd9051610fa8565b3d9150611008565b91506020823d60201161105c575b8161104a60209383611216565b81010312610249579051906064610f58565b3d915061103d565b90506020823d602011611092575b8161107f60209383611216565b8101031261024957610ef8915190610eee565b3d9150611072565b506020813d6020116110c6575b816110b460209383611216565b8101031261024957610e979051610e8c565b3d91506110a7565b346102495760203660031901126102495760043560ff811680910361024957335f525f60205260405f20905f52602052602060405f2054604051908152f35b6040600319820112610249576004359160243567ffffffffffffffff811161024957826023820112156102495780600401359267ffffffffffffffff84116102495760248483010111610249576024019190565b90602080835192838152019201905f5b81811061117e5750505090565b825163ffffffff16845260209384019390920191600101611171565b805180835260209291819084018484015e5f828201840152601f01601f1916010190565b9080602083519182815201916020808360051b8301019401925f915b8383106111e957505050505090565b9091929394602080611207600193601f19868203018752895161119a565b970193019301919392906111da565b90601f8019910116810190811067ffffffffffffffff82111761123857604052565b634e487b7160e01b5f52604160045260245ffd5b92919267ffffffffffffffff82116112385760405191611276601f8201601f191660200184611216565b829481845281830111610249578281602093845f960137010152565b60405160c091906112a38382611216565b6005815291601f1901825f5b8281106112bb57505050565b8060606020809385010152016112af565b8051156112d95760200190565b634e487b7160e01b5f52603260045260245ffd5b8051600110156112d95760400190565b8051600210156112d95760600190565b8051600310156112d95760800190565b8051600410156112d95760a00190565b61137d916020916001600160a01b035f51602061177e5f395f51905f525416905f60405180968195829463196d0b9b60e01b8452600484015233602484015260806044840152608483019061119a565b6004606483015203925af1908115610255575f9161140c575b506001600160a01b037f9e7b61f58c47dc699ac88507c4f5bb9f121c03808c5676a8078fe583e46497005416803b1561024957604051630f8e573b60e21b815260048101839052336024820152905f908290604490829084905af18015610255576113ff575090565b5f61140991611216565b90565b90506020813d602011611436575b8161142760209383611216565b8101031261024957515f611396565b3d915061141a565b9081156114e2575b80156114d0575b60209060646001600160a01b035f51602061177e5f395f51905f525416935f6040519586948593637210768160e01b8552600485015260248401528160448401525af1908115610255575f916114a1575090565b90506020813d6020116114c8575b816114bc60209383611216565b81010312610249575190565b3d91506114af565b5060206114db6116b2565b905061144d565b90506114ec6116b2565b90611446565b908115611567575b8015611555575b60209060646001600160a01b035f51602061177e5f395f51905f525416935f60405195869485936385362ee760e01b8552600485015260248401528160448401525af1908115610255575f916114a1575090565b5060206115606116b2565b9050611501565b90506115716116b2565b906114fa565b5f51602061177e5f395f51905f5254604051639cd07acb60e01b815260016004820152906001600160a01b0316816044815f602094600260248401525af1908115610255575f916114a1575090565b5f51602061177e5f395f51905f5254604051639cd07acb60e01b815260026004820152906001600160a01b0316816044815f602094600260248401525af1908115610255575f916114a1575090565b5f51602061177e5f395f51905f5254604051639cd07acb60e01b81525f6004820152906001600160a01b0316816044815f602094600260248401525af1908115610255575f916114a1575090565b5f51602061177e5f395f51905f5254604051639cd07acb60e01b815260646004820152906001600160a01b0316816044815f602094600460248401525af1908115610255575f916114a1575090565b5f51602061177e5f395f51905f5254604051639cd07acb60e01b81525f6004820152906001600160a01b0316816044815f602094600460248401525af1908115610255575f916114a1575090565b6001600160a01b037f9e7b61f58c47dc699ac88507c4f5bb9f121c03808c5676a8078fe583e4649700541691823b1561024957604051635ca4b5b160e11b815260048101929092526001600160a01b03166024820152905f908290604490829084905af18015610255576117715750565b5f61177b91611216565b56fe9e7b61f58c47dc699ac88507c4f5bb9f121c03808c5676a8078fe583e4649701a164736f6c634300081b000a9e7b61f58c47dc699ac88507c4f5bb9f121c03808c5676a8078fe583e46497039e7b61f58c47dc699ac88507c4f5bb9f121c03808c5676a8078fe583e46497019e7b61f58c47dc699ac88507c4f5bb9f121c03808c5676a8078fe583e46497029e7b61f58c47dc699ac88507c4f5bb9f121c03808c5676a8078fe583e4649700",
  "linkReferences": {},
  "deployedLinkReferences": {}
}